{
  "_format": "hh-sol-artifact-1",
  "contractName": "ConfidentialToken",
  "sourceName": "contracts/ConfidentialToken.sol",
  "abi": [
    {
      "inputs": [],
      "stateMutability": "nonpayable",
      "type": "constructor"
    },
    {
      "inputs": [
        {
          "internalType": "address",
          "name": "owner",
          "type": "address"
        }
      ],
      "name": "OwnableInvalidOwner",
      "type": "error"
    },
    {
      "inputs": [
        {
          "internalType": "address",
          "name": "account",
          "type": "address"
        }
      ],
      "name": "OwnableUnauthorizedAccount",
      "type": "error"
    },
    {
      "anonymous": false,
      "inputs": [
        {
          "indexed": true,
          "internalType": "address",
          "name": "owner",
          "type": "address"
        },
        {
          "indexed": true,
          "internalType": "address",
          "name": "spender",
          "type": "address"
        }
      ],
      "name": "Approval",
      "type": "event"
    },
    {
      "anonymous": false,
      "inputs": [
        {
          "indexed": true,
          "internalType": "address",
          "name": "to",
          "type": "address"
        },
        {
          "indexed": false,
          "internalType": "uint256",
          "name": "amount",
          "type": "uint256"
        }
      ],
      "name": "Mint",
      "type": "event"
    },
    {
      "anonymous": false,
      "inputs": [
        {
          "indexed": true,
          "internalType": "address",
          "name": "previousOwner",
          "type": "address"
        },
        {
          "indexed": true,
          "internalType": "address",
          "name": "newOwner",
          "type": "address"
        }
      ],
      "name": "OwnershipTransferStarted",
      "type": "event"
    },
    {
      "anonymous": false,
      "inputs": [
        {
          "indexed": true,
          "internalType": "address",
          "name": "previousOwner",
          "type": "address"
        },
        {
          "indexed": true,
          "internalType": "address",
          "name": "newOwner",
          "type": "address"
        }
      ],
      "name": "OwnershipTransferred",
      "type": "event"
    },
    {
      "anonymous": false,
      "inputs": [
        {
          "indexed": true,
          "internalType": "address",
          "name": "from",
          "type": "address"
        },
        {
          "indexed": true,
          "internalType": "address",
          "name": "to",
          "type": "address"
        }
      ],
      "name": "Transfer",
      "type": "event"
    },
    {
      "anonymous": false,
      "inputs": [
        {
          "indexed": true,
          "internalType": "address",
          "name": "user",
          "type": "address"
        },
        {
          "indexed": false,
          "internalType": "uint256",
          "name": "decryptedAmount",
          "type": "uint256"
        }
      ],
      "name": "UserBalanceDecrypted",
      "type": "event"
    },
    {
      "inputs": [
        {
          "internalType": "bytes",
          "name": "encryptedAmount",
          "type": "bytes"
        }
      ],
      "name": "_mint",
      "outputs": [],
      "stateMutability": "nonpayable",
      "type": "function"
    },
    {
      "inputs": [],
      "name": "_name",
      "outputs": [
        {
          "internalType": "string",
          "name": "",
          "type": "string"
        }
      ],
      "stateMutability": "view",
      "type": "function"
    },
    {
      "inputs": [],
      "name": "_symbol",
      "outputs": [
        {
          "internalType": "string",
          "name": "",
          "type": "string"
        }
      ],
      "stateMutability": "view",
      "type": "function"
    },
    {
      "inputs": [],
      "name": "_totalSupply",
      "outputs": [
        {
          "internalType": "uint256",
          "name": "",
          "type": "uint256"
        }
      ],
      "stateMutability": "view",
      "type": "function"
    },
    {
      "inputs": [],
      "name": "acceptOwnership",
      "outputs": [],
      "stateMutability": "nonpayable",
      "type": "function"
    },
    {
      "inputs": [
        {
          "internalType": "address",
          "name": "owner",
          "type": "address"
        },
        {
          "internalType": "address",
          "name": "spender",
          "type": "address"
        }
      ],
      "name": "allowance",
      "outputs": [
        {
          "internalType": "euint256",
          "name": "",
          "type": "bytes32"
        }
      ],
      "stateMutability": "view",
      "type": "function"
    },
    {
      "inputs": [
        {
          "internalType": "address",
          "name": "spender",
          "type": "address"
        },
        {
          "internalType": "bytes",
          "name": "encryptedAmount",
          "type": "bytes"
        }
      ],
      "name": "approve",
      "outputs": [
        {
          "internalType": "bool",
          "name": "",
          "type": "bool"
        }
      ],
      "stateMutability": "nonpayable",
      "type": "function"
    },
    {
      "inputs": [
        {
          "internalType": "address",
          "name": "spender",
          "type": "address"
        },
        {
          "internalType": "euint256",
          "name": "amount",
          "type": "bytes32"
        }
      ],
      "name": "approve",
      "outputs": [
        {
          "internalType": "bool",
          "name": "",
          "type": "bool"
        }
      ],
      "stateMutability": "nonpayable",
      "type": "function"
    },
    {
      "inputs": [
        {
          "internalType": "address",
          "name": "wallet",
          "type": "address"
        }
      ],
      "name": "balanceOf",
      "outputs": [
        {
          "internalType": "euint256",
          "name": "",
          "type": "bytes32"
        }
      ],
      "stateMutability": "view",
      "type": "function"
    },
    {
      "inputs": [],
      "name": "decimals",
      "outputs": [
        {
          "internalType": "uint8",
          "name": "",
          "type": "uint8"
        }
      ],
      "stateMutability": "view",
      "type": "function"
    },
    {
      "inputs": [
        {
          "internalType": "uint256",
          "name": "mintedAmount",
          "type": "uint256"
        }
      ],
      "name": "mint",
      "outputs": [],
      "stateMutability": "nonpayable",
      "type": "function"
    },
    {
      "inputs": [
        {
          "internalType": "uint256",
          "name": "requestId",
          "type": "uint256"
        },
        {
          "internalType": "bytes32",
          "name": "_decryptedAmount",
          "type": "bytes32"
        },
        {
          "internalType": "bytes",
          "name": "data",
          "type": "bytes"
        }
      ],
      "name": "onDecryptionCallback",
      "outputs": [
        {
          "internalType": "bool",
          "name": "",
          "type": "bool"
        }
      ],
      "stateMutability": "nonpayable",
      "type": "function"
    },
    {
      "inputs": [],
      "name": "owner",
      "outputs": [
        {
          "internalType": "address",
          "name": "",
          "type": "address"
        }
      ],
      "stateMutability": "view",
      "type": "function"
    },
    {
      "inputs": [],
      "name": "pendingOwner",
      "outputs": [
        {
          "internalType": "address",
          "name": "",
          "type": "address"
        }
      ],
      "stateMutability": "view",
      "type": "function"
    },
    {
      "inputs": [],
      "name": "renounceOwnership",
      "outputs": [],
      "stateMutability": "nonpayable",
      "type": "function"
    },
    {
      "inputs": [
        {
          "internalType": "address",
          "name": "user",
          "type": "address"
        }
      ],
      "name": "requestUserBalanceDecryption",
      "outputs": [
        {
          "internalType": "uint256",
          "name": "",
          "type": "uint256"
        }
      ],
      "stateMutability": "nonpayable",
      "type": "function"
    },
    {
      "inputs": [
        {
          "internalType": "address",
          "name": "to",
          "type": "address"
        },
        {
          "internalType": "bytes",
          "name": "encryptedAmount",
          "type": "bytes"
        }
      ],
      "name": "transfer",
      "outputs": [
        {
          "internalType": "bool",
          "name": "",
          "type": "bool"
        }
      ],
      "stateMutability": "nonpayable",
      "type": "function"
    },
    {
      "inputs": [
        {
          "internalType": "address",
          "name": "to",
          "type": "address"
        },
        {
          "internalType": "euint256",
          "name": "amount",
          "type": "bytes32"
        }
      ],
      "name": "transfer",
      "outputs": [
        {
          "internalType": "bool",
          "name": "",
          "type": "bool"
        }
      ],
      "stateMutability": "nonpayable",
      "type": "function"
    },
    {
      "inputs": [
        {
          "internalType": "address",
          "name": "from",
          "type": "address"
        },
        {
          "internalType": "address",
          "name": "to",
          "type": "address"
        },
        {
          "internalType": "bytes",
          "name": "encryptedAmount",
          "type": "bytes"
        }
      ],
      "name": "transferFrom",
      "outputs": [
        {
          "internalType": "bool",
          "name": "",
          "type": "bool"
        }
      ],
      "stateMutability": "nonpayable",
      "type": "function"
    },
    {
      "inputs": [
        {
          "internalType": "address",
          "name": "from",
          "type": "address"
        },
        {
          "internalType": "address",
          "name": "to",
          "type": "address"
        },
        {
          "internalType": "euint256",
          "name": "amount",
          "type": "bytes32"
        }
      ],
      "name": "transferFrom",
      "outputs": [
        {
          "internalType": "bool",
          "name": "",
          "type": "bool"
        }
      ],
      "stateMutability": "nonpayable",
      "type": "function"
    },
    {
      "inputs": [
        {
          "internalType": "address",
          "name": "newOwner",
          "type": "address"
        }
      ],
      "name": "transferOwnership",
      "outputs": [],
      "stateMutability": "nonpayable",
      "type": "function"
    }
  ],
  "bytecode": "0x608060405234801561000f575f5ffd5b50338061003557604051631e4fbdf760e01b81525f600482015260240160405180910390fd5b61003e816100a1565b5060408051808201909152601081526f10dbdb999a59195b9d1a585b081554d160821b602082015260039061007390826101a4565b506040805180820190915260048082526310d554d160e21b60208301529061009b90826101a4565b5061025e565b600180546001600160a01b03191690556100ba816100bd565b50565b5f80546001600160a01b038381166001600160a01b0319831681178455604051919092169283917f8be0079c531659141344cd1fd0a4f28419497f9722a3daafe3b4186f6b6457e09190a35050565b634e487b7160e01b5f52604160045260245ffd5b600181811c9082168061013457607f821691505b60208210810361015257634e487b7160e01b5f52602260045260245ffd5b50919050565b601f82111561019f57805f5260205f20601f840160051c8101602085101561017d5750805b601f840160051c820191505b8181101561019c575f8155600101610189565b50505b505050565b81516001600160401b038111156101bd576101bd61010c565b6101d1816101cb8454610120565b84610158565b6020601f821160018114610203575f83156101ec5750848201515b5f19600385901b1c1916600184901b17845561019c565b5f84815260208120601f198516915b828110156102325787850151825560209485019460019092019101610212565b508482101561024f57868401515f19600387901b60f8161c191681555b50505050600190811b01905550565b61132c8061026b5f395ff3fe608060405234801561000f575f5ffd5b5060043610610132575f3560e01c80637d32e7bd116100b4578063b3c06f5011610079578063b3c06f5014610287578063c06462fa1461029a578063d28d8852146102ad578063dd62ed3e146102b5578063e30c3978146102c8578063f2fde38b146102d9575f5ffd5b80637d32e7bd146102155780638da5cb5b14610228578063a0712d681461024c578063b09f12661461025f578063b20dea5a14610274575f5ffd5b80635cd2f4d3116100fa5780635cd2f4d3146101b557806370a08231146101c8578063714baf7b146101f0578063715018a61461020357806379ba50971461020d575f5ffd5b8063014647f414610136578063297235111461015e578063313ce567146101715780633eaaf86b1461018b57806349972663146101a2575b5f5ffd5b610149610144366004610f41565b6102ec565b60405190151581526020015b60405180910390f35b61014961016c366004610f41565b61033c565b610179600681565b60405160ff9091168152602001610155565b61019460025481565b604051908152602001610155565b6101496101b0366004610f90565b610381565b6101496101c3366004610fed565b6103d3565b6101946101d6366004611015565b6001600160a01b03165f9081526005602052604090205490565b6101946101fe366004611015565b61041e565b61020b61049a565b005b61020b6104ad565b610149610223366004610fed565b6104f6565b5f546001600160a01b03165b6040516001600160a01b039091168152602001610155565b61020b61025a36600461102e565b610529565b61026761069d565b6040516101559190611073565b610149610282366004611099565b610729565b61014961029536600461115e565b610783565b61020b6102a8366004611198565b61079e565b610267610860565b6101946102c33660046111d7565b61086d565b6001546001600160a01b0316610234565b61020b6102e7366004611015565b61089c565b5f610331846101c385858080601f0160208091040260200160405190810160405280939291908181526020018383808284375f9201919091525033925061090c915050565b506001949350505050565b5f6103318461022385858080601f0160208091040260200160405190810160405280939291908181526020018383808284375f9201919091525033925061090c915050565b5f6103c7858561029586868080601f0160208091040260200160405190810160405280939291908181526020018383808284375f9201919091525033925061090c915050565b50600195945050505050565b5f6103df338484610980565b6040516001600160a01b0384169033907ff37f546c25e850257cc0c94f92bec94a17e2f0e884ddda268a25d8144b70eb6a905f90a35060015b92915050565b5f6104276109ca565b6001600160a01b0382165f9081526005602052604090205461044981306109f6565b5f61046a8263b20dea5a60e01b60405180602001604052805f815250610a62565b5f81815260076020526040902080546001600160a01b0319166001600160a01b038716179055925050505b919050565b6104a26109ca565b6104ab5f610af4565b565b60015433906001600160a01b031681146104ea5760405163118cdaa760e01b81526001600160a01b03821660048201526024015b60405180910390fd5b6104f381610af4565b50565b335f9081526005602052604081205481906105119084610b0d565b905061051f33858584610b5c565b5060019392505050565b6105316109ca565b61057660055f6105485f546001600160a01b031690565b6001600160a01b03166001600160a01b031681526020019081526020015f205461057183610c61565b610cd0565b60055f61058a5f546001600160a01b031690565b6001600160a01b03166001600160a01b031681526020019081526020015f20819055506105ea60055f6105c45f546001600160a01b031690565b6001600160a01b03166001600160a01b031681526020019081526020015f2054306109f6565b61063760055f6106015f546001600160a01b031690565b6001600160a01b03166001600160a01b031681526020019081526020015f20546106325f546001600160a01b031690565b6109f6565b8060025f8282546106489190611208565b90915550505f546001600160a01b03166001600160a01b03167f0f6798a560793a54c3bcfe86a93cde1e73087d944c0ea20544137d41213968858260405161069291815260200190565b60405180910390a250565b600480546106aa90611227565b80601f01602080910402602001604051908101604052809291908181526020018280546106d690611227565b80156107215780601f106106f857610100808354040283529160200191610721565b820191905f5260205f20905b81548152906001019060200180831161070457829003601f168201915b505050505081565b5f8381526007602090815260408083205490518581526001600160a01b039091169182917f7f01eae6b53977178b7ddf24836b067fb20d33f6af6344b18924e21a1bb63962910160405180910390a2506001949350505050565b5f5f610790853385610ced565b905061033185858584610b5c565b61080560055f336001600160a01b03166001600160a01b031681526020019081526020015f205461057184848080601f0160208091040260200160405190810160405280939291908181526020018383808284375f9201919091525033925061090c915050565b335f90815260056020526040902081905561082090306109f6565b335f90815260056020526040902054610844906106325f546001600160a01b031690565b335f8181526005602052604090205461085c916109f6565b5050565b600380546106aa90611227565b6001600160a01b038083165f9081526006602090815260408083209385168352929052908120545b9392505050565b6108a46109ca565b600180546001600160a01b0383166001600160a01b031990911681179091556108d45f546001600160a01b031690565b6001600160a01b03167f38d16b8cac22d99fc7c124b9cd0de2d3fa1faef420bfe791d8c362d765e2270060405160405180910390a350565b60405163ba76f2a960e01b81525f905f5160206112d75f395f51905f529063ba76f2a990610940908690869060040161125f565b6020604051808303815f875af115801561095c573d5f5f3e3d5ffd5b505050506040513d601f19601f820116820180604052508101906108959190611288565b6001600160a01b038084165f9081526006602090815260408083209386168352929052208190556109b181306109f6565b6109bb81846109f6565b6109c581836109f6565b505050565b5f546001600160a01b031633146104ab5760405163118cdaa760e01b81523360048201526024016104e1565b604051635ca4b5b160e11b8152600481018390526001600160a01b03821660248201525f5160206112d75f395f51905f529063b9496b62906044015f604051808303815f87803b158015610a48575f5ffd5b505af1158015610a5a573d5f5f3e3d5ffd5b505050505050565b5f5f5160206112d75f395f51905f5263f3ff21f284610a83611c2042611208565b610a8c88610d86565b866040518563ffffffff1660e01b8152600401610aac949392919061129f565b6020604051808303815f875af1158015610ac8573d5f5f3e3d5ffd5b505050506040513d601f19601f82011682018060405250810190610aec9190611288565b949350505050565b600180546001600160a01b03191690556104f381610d90565b5f5f5160206112d75f395f51905f52638ff94ab4610b2a85610d86565b610b3385610d86565b6040516001600160e01b031960e085901b16815260048101929092526024820152604401610940565b5f610b708284610b6b5f610c61565b610ddf565b6001600160a01b0385165f9081526005602052604081205491925090610b969083610cd0565b6001600160a01b0386165f9081526005602052604090208190559050610bbc81306109f6565b610bc681866109f6565b6001600160a01b0386165f90815260056020526040812054610be89084610e3f565b6001600160a01b0388165f9081526005602052604090208190559050610c0e81306109f6565b610c1881886109f6565b856001600160a01b0316876001600160a01b03167f4853ae1b4d437c4255ac16cd3ceda3465975023f27cb141584cd9d44440fed8260405160405180910390a350505050505050565b6040516333f3d1bf60e11b8152600481018290525f905f5160206112d75f395f51905f52906367e7a37e906024015b6020604051808303815f875af1158015610cac573d5f5f3e3d5ffd5b505050506040513d601f19601f820116820180604052508101906104189190611288565b5f5f5160206112d75f395f51905f5263f4f9966b610b2a85610d86565b6001600160a01b038084165f9081526006602090815260408083209386168352929052908120545f610d1f8285610b0d565b6001600160a01b0387165f9081526005602052604081205491925090610d459086610b0d565b90505f610d5b8284610d565f610e5c565b610e90565b9050610d7b8888610d7684610d70898c610e3f565b89610ddf565b610980565b979650505050505050565b5f61041882610ebf565b5f80546001600160a01b038381166001600160a01b0319831681178455604051919092169283917f8be0079c531659141344cd1fd0a4f28419497f9722a3daafe3b4186f6b6457e09190a35050565b5f5f5160206112d75f395f51905f5263d9d017f6610dfc86610ed2565b610e0586610d86565b610e0e86610d86565b6040516001600160e01b031960e086901b168152600481019390935260248301919091526044820152606401610aac565b5f5f5160206112d75f395f51905f5263de195e2d610b2a85610d86565b604051635d7d539760e01b815281151560048201525f905f5160206112d75f395f51905f5290635d7d539790602401610c90565b5f5f5160206112d75f395f51905f5263d9d017f6610ead86610ed2565b610eb686610ed2565b610e0e86610ed2565b5f81610ece576104185f610c61565b5090565b5f610418825f81610ece576104185f610e5c565b80356001600160a01b0381168114610495575f5ffd5b5f5f83601f840112610f0c575f5ffd5b50813567ffffffffffffffff811115610f23575f5ffd5b602083019150836020828501011115610f3a575f5ffd5b9250929050565b5f5f5f60408486031215610f53575f5ffd5b610f5c84610ee6565b9250602084013567ffffffffffffffff811115610f77575f5ffd5b610f8386828701610efc565b9497909650939450505050565b5f5f5f5f60608587031215610fa3575f5ffd5b610fac85610ee6565b9350610fba60208601610ee6565b9250604085013567ffffffffffffffff811115610fd5575f5ffd5b610fe187828801610efc565b95989497509550505050565b5f5f60408385031215610ffe575f5ffd5b61100783610ee6565b946020939093013593505050565b5f60208284031215611025575f5ffd5b61089582610ee6565b5f6020828403121561103e575f5ffd5b5035919050565b5f81518084528060208401602086015e5f602082860101526020601f19601f83011685010191505092915050565b602081525f6108956020830184611045565b634e487b7160e01b5f52604160045260245ffd5b5f5f5f606084860312156110ab575f5ffd5b8335925060208401359150604084013567ffffffffffffffff8111156110cf575f5ffd5b8401601f810186136110df575f5ffd5b803567ffffffffffffffff8111156110f9576110f9611085565b604051601f8201601f19908116603f0116810167ffffffffffffffff8111828210171561112857611128611085565b60405281815282820160200188101561113f575f5ffd5b816020840160208301375f602083830101528093505050509250925092565b5f5f5f60608486031215611170575f5ffd5b61117984610ee6565b925061118760208501610ee6565b929592945050506040919091013590565b5f5f602083850312156111a9575f5ffd5b823567ffffffffffffffff8111156111bf575f5ffd5b6111cb85828601610efc565b90969095509350505050565b5f5f604083850312156111e8575f5ffd5b6111f183610ee6565b91506111ff60208401610ee6565b90509250929050565b8082018082111561041857634e487b7160e01b5f52601160045260245ffd5b600181811c9082168061123b57607f821691505b60208210810361125957634e487b7160e01b5f52602260045260245ffd5b50919050565b604081525f6112716040830185611045565b905060018060a01b03831660208301529392505050565b5f60208284031215611298575f5ffd5b5051919050565b63ffffffff60e01b85168152836020820152826040820152608060608201525f6112cc6080830184611045565b969550505050505056fe0000000000000000000000000bdcc5da46f3fb855025f9760849569e8589f5eba264697066735822122016062ba6412e4847f227163e04c87279639053256cb6d2481cdc7ca39434703f64736f6c634300081c0033",
  "linkReferences": {},
  "deployedLinkReferences": {}
}